:03000000021519CD
:0C151900787FE4F6D8FD75812A021016D8
:10139D00494E413232363A00566F6C746167653A88
:1013AD000043757272656E743A00506F7765723ACC
:0113BD00002F
:101016001214DF120F2B1211ED1213BE7BFF7A137F
:10102600799D750D10E4FD7F031212377BFF7A134D
:1010360079A5750D107D027F031212377BFF7A1397
:1010460079AE750D107D047F031212377BFF7A137C
:1010560079B7750D107D067F031212377F80121344
:10106600FEAC06AD07E4120CA6E4FBFA79A0783FC5
:10107600120B9B120CDF8E1C8F1D7F80121312AC7D
:1010860006AD07E4120CA6120CDF8E1E8F1FAC1ED7
:10109600AD1FAE1CAF1D120D8D8E1A8F1B750C0465
:1010A600750D10AB1DAA1C7D027F49121173750CBC
:1010B60004750D10AB1FAA1E7D047F4912117375AE
:1010C6000C04750D10AB1BAA1A7D067F491211730D
:0210D600808A0E
:1010D80043BA8090FFF2E4F090FFF0747FF0A374BD
:1010E800FFF090FF00E4F0A3F0A3F0A304F0A374D2
:1010F80080F090FF10E4F0A3F0A3F0A304F0A37431
:1011080080F090FF20E4F0A3F0A3F0A304F0A37410
:1011180080F090FF30E4F0A3F0A3F0A304F0A374F0
:1011280080F090FF40E4F0A3F0A3F0A304F0A374D0
:1011380080F090FF50E4F0A3F0A3F0A304F0A374B0
:1011480080F090FF60E4F0A3F0A3F0A304F0A37490
:1011580080F090FF70E4F0A3F0A3F0A304F0A37470
:0B11680080F053BA7F75FEC0D2AF22AA
:100003000000000000000000002F000000000700B7
:10001300070000147F147F1400242A7F2A12006231
:1000230064081323003649552250000005030000DD
:1000330000001C224100000041221C000014083E65
:1000430008140008083E0808000000A0600000082B
:10005300080808080000606000000020100804027F
:10006300003E5149453E0000427F4000004261513D
:100073004946002141454B31001814127F100027D7
:1000830045454539003C4A4949300001710905039A
:1000930000364949493600064949291E00003636CB
:1000A300000000005636000000081422410000142E
:1000B300141414140000412214080002015109060B
:1000C30000324959513E007C1211127C007F49498C
:1000D3004936003E41414122007F4141221C007FBD
:1000E30049494941007F09090901003E4149497ACB
:1000F300007F0808087F0000417F41000020404145
:100103003F01007F08142241007F40404040007FB0
:10011300020C027F007F0408107F003E4141413EF4
:10012300007F09090906003E4151215E007F09193C
:1001330029460046494949310001017F0101003F39
:100143004040403F001F2040201F003F4038403FB9
:10015300006314081463000708700807006151491D
:10016300454300007F41410000552A552A550000B0
:1001730041417F000004020102040040404040402E
:10018300000001020400002054545478007F4844C6
:10019300443800384444442000384444487F0038FD
:1001A3005454541800087E0901020018A4A4A47C26
:1001B300007F080404780000447D400000408084F0
:1001C3007D00007F102844000000417F4000007C38
:1001D30004180478007C0804047800384444443844
:1001E30000FC242424180018242418FC007C080490
:1001F300040800485454542000043F444020003C69
:100203004040207C001C2040201C003C4030403CEF
:10021300004428102844001CA0A0A07C004464547F
:100223004C441414141414140000000000000000C3
:100233000000000000000000000000F800000000C3
:10024300000000333000000000100C06100C060004
:10025300000000000000000040C07840C07840006B
:10026300043F04043F040400007088FC08300000CD
:10027300001820FF211E0000F008F000E018000025
:1002830000211C031E211E0000F0088870000000DE
:100293001E2123241927211010160E000000000030
:1002A3000000000000000000000000E0180402004D
:1002B300000000071820400000020418E0000000BE
:1002C3000040201807000000404080F080404000BC
:1002D3000202010F01020200000000F00000000012
:1002E3000101011F010101000000000000000000E6
:1002F30080B070000000000000000000000000005B
:1003030000010101010101010000000000000000E3
:10031300003030000000000000000000806018047E
:10032300006018060100000000E010080810E0005B
:10033300000F102020100F00001010F80000000024
:100343000020203F2020000000700808088870006B
:1003530000302824222130000030088888483000EB
:100363000018202020110E000000C02010F800000B
:1003730000070424243F240000F8088888080800A4
:100383000019212020110E0000E0108888180000B9
:10039300000F112020110E0000380808C83808008B
:1003A3000000003F0000000000708808088870000B
:1003B300001C222121221C0000E010080810E0008C
:1003C3000000312222110F00000000C0C000000015
:1003D300000000303000000000000080000000003A
:1003E3000000806000000000000080402010080032
:1003F30000010204081020004040404040404000FB
:1004030004040404040404000008102040800000D5
:100413000020100804020100007048080808F000DA
:100423000000003036010000C030C828E810E000AA
:100433000718272423140B000000C038E000000035
:10044300203C23020227382008F88888887000009F
:10045300203F202020110E00C03008080808380073
:10046300071820202010080008F808080810E000EA
:10047300203F202020100F0008F88888E80810008B
:10048300203F20202320180008F88888E80810005F
:10049300203F200003000000C03008080838000097
:1004A30007182020221E020008F808000008F80898
:1004B300203F210101213F20000808F8080800001F
:1004C3000020203F2020000000000808F808080052
:1004D300C08080807F00000008F888C028180800CA
:1004E300203F20012638200008F808000000000003
:1004F300203F20202020300008F8F800F8F80800FA
:10050300203F003F003F200008F830C00008F808F3
:10051300203F200007183F00E01008080810E00003
:100523000F10202020100F0008F808080808F0001A
:10053300203F210101010000E01008080810E0003D
:100543000F18242438504F0008F8888888887000D2
:10055300203F2000030C3020007088080808380072
:100563000038202121221C00180808F80808180068
:100573000000203F2000000008F808000008F808E9
:10058300001F202020201F000878880000C838089A
:10059300000007380E010000F80800F80008F80012
:1005A300033C0700073C03000818688080681808AC
:1005B30020302C03032C30200838C800C83808002A
:1005C3000000203F2000000010080808C838080079
:1005D3002038262120201800000000FE020202001D
:1005E3000000007F40404000000C30C000000000CD
:1005F300000000010638C00000020202FE000000F5
:10060300004040407F00000000000402020204009A
:1006130000000000000000000000000000000000D7
:1006230080808080808080800002020400000000BF
:1006330000000000000000000000808080800000B7
:100643000019242222223F2008F8008080000000A5
:10065300003F112020110E00000000808080000068
:10066300000E112020201100000000808088F80077
:10067300000E112020103F200000808080800000A9
:10068300001F222222221300008080F0888888180D
:100693000020203F20200000000080808080800018
:1006A300006B94949493600008F8008080800000AD
:1006B300203F210000203F20008098980000000088
:1006C3000020203F202000000000008098980000B8
:1006D30000C08080807F000008F8000080808000D8
:1006E300203F24022D302000000808F800000000FD
:1006F3000020203F202000008080808080808000B8
:10070300203F20003F20003F808000808080000049
:10071300203F210000203F200000808080800000D7
:10072300001F202020201F00808000808000000008
:1007330080FFA12020110E00000000808080800037
:10074300000E112020A0FF80808080008080800028
:1007530020203F2120000100000080808080800055
:100763000033242424241900008080E080800000CA
:100773000000001F20200000808000000080800017
:10078300001F202020103F20808080000080808078
:1007930000010E3008060100808000800080808008
:1007A3000F300C030C300F0000808000808080002D
:1007B3000020312E0E312000808080000080808058
:1007C30080818E7018060100008080808080800008
:1007D3000021302C2221300000000000807C020226
:1007E30000000000003F404000000000FF00000048
:1007F30000000000FF0000000002027C80000000F7
:100803000040403F00000000000601010202040412
:1008130000000000000000001008FCAAABAAAAFA1E
:10082300AAAAAEA8F8000000000000000000000023
:100833000000000000000000020202FAAAAAAAAA0D
:10084300AAAAAAFA020202000000000000000000A7
:100853000000000000000000008060F80700F808B6
:100863000C0B080808F8000000000000000000005E
:100873000000000000000000010000FF0000FF4135
:100883004141414141FF0000000000000000000021
:100893000000000000000000403C10FF1010404822
:1008A30048487F48C848400000000000000000009E
:1008B3000000000000000000020602FF0101000228
:1008C3000A1242827F0202000000000000000000C2
:1008D300000000000000000000101010101011169E
:1008E30010905030100000000000000000000000D5
:1008F30000000000000000000040201010284442C7
:100903004140404040404000000000000000000023
:1009130000000000000000001060020CC000FE2276
:100923002222222222FE000000000000000000001C
:10093300000000000000000004047C030000FF42EC
:100943004242424242FF000000000000000000005B
:1009530000000000000000001060028C0000FE9206
:1009630092929292FE00000000000000000000003E
:10097300000000000000000004047E01407E4242AB
:100983007E427E42427E40000000000000000000E4
:1009930000000000000000000000FC242424FC25CB
:1009A3002624FC242424040000000000000000008E
:1009B300000000000000000040308F80844C55256B
:1009C3002525554C808080000000000000000000B9
:1009D300000000000000000002F20202F29292F214
:1009E3009292F20202F202000000000000000000F6
:1009F3000000000000000000007F40404F48484FC7
:100A030048484F4040FF0000000000000000000085
:100A13000000000000000000104C4444444445C65C
:100A23004444444444540C0000000000000000000F
:100A33000000000000000000404044444444447F60
:100A4300444454644440400000000000000000009F
:100A5300000000000000000000FE1262827202FE2D
:100A63000000F80000FF000000000000000000008C
:100A7300000000000000000000FF0806014E807F18
:100A830000000F40807F0000000000000000000015
:100A93000000000000000000404042CC0008E9AA2A
:100AA300B8A8A8AAE90800000000000000000000A0
:100AB30000000000000000000040201F20405F4AAB
:100AC3004A4A4A4A5F40400000000000000000001C
:100AD30000000000000000000000FC040404040403
:100AE30004040404FC0000000000000000000000F7
:100AF300000000000000000000007F2020202020D4
:100B0300202020207F0000000000000000000000E3
:100B13000000000000000000F000FF2010008888A3
:100B23004F58245484E4000000000000000000003B
:100B3300000000000000000080700F10208242328D
:100B43000E02023E4242720000000000000000005C
:100B5300000000000000000008488808C8380000B2
:100B6300FC061544847C0000000000000000000027
:100B7300000000000000000020100C030418001007
:100B83001312125292423E000000000000000000C7
:080B930000000000000000005A
:061468007F10E4FDFCFE14
:10146E008E188F19ED4C600302150BAF191214FD77
:01147E00224B
:1012E4008F17ED24B0FFE433FEE4FDFC12146EE529
:1012F4001754F0C4540F7E004410FFE4FDFC121494
:0E1304006EE517540FFF7E00E4FDFC02146E30
:1011ED00E4F508AF087E00C3EF9408748094805036
:1011FD0038EF24B0FFEE33FEE4FDFC12146EE4FD77
:10120D00FCFFFE12146E121468E4F509C3E509948F
:10121D008074809480500E7D017C00E4FFFE1214DA
:09122D006E050980E7050880BA8E
:011236002295
:040E40008F118D126F
:100E4400E4F515F516EB24E0F515D3EF947F7480E3
:100E540094804007E4F51105120512E5146410604E
:100E640003020EEAAD12AF111212E4E4F516C3E563
:100E740016940874809480502B75F010E515A42501
:100E840016F582E435F0F583E582242BF582E583BB
:100E94003402F583E493FF7E007D017C0012146E1E
:100EA400051680CAE51204FDAF111212E4E4F5162A
:100EB400C3E516940874809480506B75F010E515A2
:100EC400A42516F582E435F0F583E5822433F58212
:100ED400E5833402F583E493FF7E007D017C0012F8
:100EE400146E051680CAAD12AF111212E4E4F516A1
:100EF400C3E516940674809480502B75F006E515AE
:100F0400A42403F582E5F03400F583E5822516F583
:100F140082E43583F583E493FF7E007D017C001237
:060F2400146E051680CAE0
:010F2A0022A4
:0A1237008F088D098B0A8A0B890CC1
:10124100E4F50EAB0AAA0BA90C850E827583001278
:101251000D60FB6024850D14AD09AF08120E4074BA
:10126100082508F508D39478748094804007E4F544
:091271000805090509050E80CAF3
:01127A002251
:041450008F11A9054A
:101454007F017E00AD0119ED6009AD117C00120D14
:031464008D80F187
:011467002262
:081173008F088D098A0A8B0B1D
:10117B00E4F510F50EE50EC3950C5065C3E50C9523
:10118B000E14FD7F0A121450AC0AAD0BCFCDCFCE8F
:10119B00CCCE120D9F7C007D0A120D9F8D0FE5109A
:1011AB007023E50C14FFE50EC39F5019E50F701269
:1011BB00E50DC313850EF0A42508FF850D147B20C8
:1011CB008016751001E50DC313850EF0A42508FFDD
:1011DB00E50F2430FB850D14AD09120E40050E8072
:0111EB00946F
:0111EC0022E0
:100F2B007FAE12146AE4FDFC7F20FE12146E1214C5
:100F3B0068E4FDFC7FB0FE12146EE4FDFC7FC8FE7E
:100F4B0012146EE4FDFC7F02FE12146E121468E4A0
:100F5B00FDFC7F40FE12146EE4FDFC7F81FE12143B
:100F6B006EE4FDFC7FFFFE12146EE4FDFC7FA1FE20
:100F7B0012146EE4FDFC7FA6FE12146EE4FDFC7FE2
:100F8B00A8FE12146EE4FDFC7F3FFE12146EE4FD0E
:100F9B00FC7FA4FE12146EE4FDFC7FD3FE12146ED4
:100FAB00E4FDFCFFFE12146EE4FDFC7FD5FE121473
:100FBB006EE4FDFC7FF0FE12146EE4FDFC7FD9FEA7
:100FCB0012146EE4FDFC7F22FE12146EE4FDFC7F16
:100FDB00DAFE12146EE4FDFC7F12FE12146EE4FDB9
:100FEB00FC7FDBFE12146EE4FDFC7F20FE12146E00
:100FFB00E4FDFC7F8DFE12146EE4FDFC7F14FE12EB
:0B100B00146EE4FDFC7FAFFE02146ECB
:10149500D2AFD2A9538E7F5389F0758A66758CFCBD
:0514A500C28DD28C2273
:0B1525000000007F0B7EBEDEFEDFFC3E
:011530002298
:0214BF00AD0777
:0D14C100E4FCECC39D50061215250C80F5CF
:0114CE0022FB
:1013BE007B007A80E4FD7F801212B17B4F7A48E485
:1013CE00FD7F801212B17BC87A017D057F800212EB
:0113DE00B15D
:10141D008F0D8D0E12153DAF0D1214B1121442AF7A
:0A142D000E1214B11214420215460B
:0812B1008F088D098A0A8B0BDE
:1012B900E4FF12153DAF081214B1121442AF09121E
:1012C90014B1121442E50AFF1214B1121442AF0B01
:0B12D900E50B1214B11214420215467E
:02127B008F0DD5
:10127D00E4F50EF50F12153DE50D04FF1214B11234
:10128D0014427F0112137B750E008F0FE50F750F42
:10129D0000F50EE4FF12137BEF420FE4121546AE7C
:0312AD000EAF0F72
:0112B000221B
:021312008F0842
:10131400E4FE7D04AF0812141DAF0812127BEE30F8
:10132400E70EEF24FFFFEE34FFFEEFF4FFEEF4FED2
:011334002296
:02147F008F28B4
:101481007E007C007DFFAF2812141DAF2812127B55
:03149100E4FCFD7B
:011494002235
:0213DF008F205D
:1013E100E4F524F523F522F5217D0512141DAF2026
:0C13F10012127BE48F248E23F522F521DC
:0113FD0022CD
:0213FE008F0856
:10140000E4F50CF50BF50AF5097D0212141DAF0881
:0C14100012127BE48F0C8E0BF50AF5091C
:01141C0022AD
:021335008F29FE
:10133700E4FE7D01AF2912141DAF2912127BEE3096
:10134700E70EEF24FFFFEE34FFFEEFF4FFEEF4FEAF
:011357002273
:0214CF008F2A62
:0E14D100E4FE7D03AF2A12141DAF2A02127B27
:101358008B258A2689277F801214CF7C007D19125D
:101368000D8DAC06AD07E4120CA6AB25AA26A9275D
:03137800020E0260
:0F14DF0043BAB090FE8074E0F090FE82E4F022F9
:0C15310090FE82E030E6F9E054BFF022AA
:09153D0090FE817401F0021531E9
:0915460090FE817406F0021531DB
:0B1437001214B1121442AF061214B1DF
:0E14420090FE82E4F090FE817405F0021531F8
:0F14EE0090FE827401F090FE817405F0021531BA
:10137B0090FE817404F0EF6004A3E4800590FE827C
:10138B007401F090FE817405F012153190FE87E028
:02139B00FF222F
:0714AA00AE0712153D7F782B
:0E14B10090FE86EFF090FE817402F00215317D
:0E14FD001214AA121442E4FF1214370215460C
:0E150B001214AA1214427F4012143702154621
:100B9B00EC4D6011E8497017ED33EC3304600DE454
:100BAB00FCFFFEFD22E933E8330470F8020D4B1213
:100BBB000D1658046009E4CC248150062850090214
:100BCB000D55284003020D52C0E0EB4A7044B9802A
:100BDB0006D0E0FB020D41EF4E701CBD8008EBFF11
:100BEB00EAFEE9FD80EBE98DF0A4FEE5F0020C8452
:100BFB00E9CDF9EAFEEBFFEF89F0A4FCE5F0CE8935
:100C0B00F0A42EFFE435F0CD89F0A42DFEE435F0F1
:100C1B008067EF4E7005BD80D780C3EF8BF0A4AC1F
:100C2B00F0EE8BF0A42CFCE435F0F8EF8AF0A42C5A
:100C3B00E5F038FCE433CB8DF0A42CFCE5F03BF86D
:100C4B00EE8AF0A42CFCE5F038F8E433CF89F0A45D
:100C5B002CFCE5F038CF3400CE89F0A42FFFE5F063
:100C6B003EFEE433C98DF0A42EFEE5F039CD8AF0BB
:100C7B00A42FFFE5F03EFEE43DFD33D0E0FB500733
:100C8B000BBB000F020D55EC2CFCEF33FFEE33FECC
:060C9B00ED33FD020D2DFA
:100CA10075F020800E75F010800575F0087D007ECE
:100CB100007F003392D530D503120DF4EC33401090
:100CC100EF33FFEE33FEED33FDEC33FCD5F0ED22D7
:0E0CD100E5F0247EA2D513CC92E7CDCEFF2213
:100CDF00EDD2E7CD33EC3392D524814006E4FFFE0D
:100CEF00FDFC22FCE4CFCECDCC24E0501174FF806C
:100CFF00EDC3CC13CCCD13CDCE13CECF13CF047009
:070D0F00F030D5DE020DF407
:100D1600E9D2E7C933E833F892D5EDD2E7CD33EC23
:070D260033FC5002B2D5229C
:100D2D00EC30E7100FBF000C0EBE00080DBD000427
:100D3D000BEB6014A2D5EB13FCED92E7FD2274FFD3
:100D4D00FCFDFEFF22E480F8A2D574FF13FC7D802C
:030D5D00E480EF40
:100D6000BB010CE58229F582E5833AF583E0225048
:100D700006E92582F8E622BBFE06E92582F8E22292
:0D0D8000E58229F582E5833AF583E49322AC
:100D8D00EF8DF0A4A8F0CF8CF0A428CE8DF0A42E7A
:020D9D00FE2234
:100D9F00BC000BBE0029EF8DF084FFADF022E4CC38
:100DAF00F875F008EF2FFFEE33FEEC33FCEE9DEC01
:100DBF00984005FCEE9DFE0FD5F0E9E4CEFD22ED47
:100DCF00F8F5F0EE8420D21CFEADF075F008EF2F91
:100DDF00FFED33FD4007985006D5F0F222C398FD82
:050DEF000FD5F0EA221F
:0E0DF400C3E49FFFE49EFEE49DFDE49CFC2210
:100E0200BB010789828A83020E285005E9F8020E87
:0A0E12001CBBFE05E9F8020E3422B5
:0C0E1C00ECF608EDF608EEF608EFF62202
:0C0E2800ECF0A3EDF0A3EEF0A3EFF0223D
:0C0E3400ECF208EDF208EEF208EFF222FA
:00000001FF
